{
  "contractName": "TournamentScores",
  "abi": [
    {
      "anonymous": false,
      "inputs": [
        {
          "indexed": true,
          "internalType": "string",
          "name": "player1",
          "type": "string"
        },
        {
          "indexed": true,
          "internalType": "string",
          "name": "player2",
          "type": "string"
        },
        {
          "indexed": false,
          "internalType": "uint256",
          "name": "score1",
          "type": "uint256"
        },
        {
          "indexed": false,
          "internalType": "uint256",
          "name": "score2",
          "type": "uint256"
        },
        {
          "indexed": false,
          "internalType": "uint256",
          "name": "startDate",
          "type": "uint256"
        },
        {
          "indexed": false,
          "internalType": "uint256",
          "name": "endDate",
          "type": "uint256"
        }
      ],
      "name": "MatchAdded",
      "type": "event"
    },
    {
      "anonymous": false,
      "inputs": [
        {
          "indexed": false,
          "internalType": "uint256",
          "name": "tournamentId",
          "type": "uint256"
        },
        {
          "indexed": false,
          "internalType": "string",
          "name": "topPlayer1",
          "type": "string"
        },
        {
          "indexed": false,
          "internalType": "string",
          "name": "topPlayer2",
          "type": "string"
        },
        {
          "indexed": false,
          "internalType": "string",
          "name": "topPlayer3",
          "type": "string"
        }
      ],
      "name": "TournamentFinalized",
      "type": "event"
    },
    {
      "inputs": [
        {
          "internalType": "uint256",
          "name": "",
          "type": "uint256"
        }
      ],
      "name": "tournaments",
      "outputs": [
        {
          "internalType": "string",
          "name": "topPlayer1",
          "type": "string"
        },
        {
          "internalType": "string",
          "name": "topPlayer2",
          "type": "string"
        },
        {
          "internalType": "string",
          "name": "topPlayer3",
          "type": "string"
        },
        {
          "internalType": "bool",
          "name": "finalized",
          "type": "bool"
        },
        {
          "internalType": "uint256",
          "name": "startDate",
          "type": "uint256"
        },
        {
          "internalType": "uint256",
          "name": "endDate",
          "type": "uint256"
        },
        {
          "internalType": "uint256",
          "name": "matchCount",
          "type": "uint256"
        }
      ],
      "stateMutability": "view",
      "type": "function",
      "constant": true
    },
    {
      "inputs": [],
      "name": "createTournament",
      "outputs": [],
      "stateMutability": "nonpayable",
      "type": "function"
    },
    {
      "inputs": [
        {
          "internalType": "uint256",
          "name": "_tournamentId",
          "type": "uint256"
        },
        {
          "internalType": "string",
          "name": "_player1",
          "type": "string"
        },
        {
          "internalType": "string",
          "name": "_player2",
          "type": "string"
        },
        {
          "internalType": "uint256",
          "name": "_score1",
          "type": "uint256"
        },
        {
          "internalType": "uint256",
          "name": "_score2",
          "type": "uint256"
        },
        {
          "internalType": "uint256",
          "name": "_startDate",
          "type": "uint256"
        }
      ],
      "name": "addMatch",
      "outputs": [],
      "stateMutability": "nonpayable",
      "type": "function"
    },
    {
      "inputs": [
        {
          "internalType": "uint256",
          "name": "_tournamentId",
          "type": "uint256"
        },
        {
          "internalType": "string",
          "name": "_topPlayer1",
          "type": "string"
        },
        {
          "internalType": "string",
          "name": "_topPlayer2",
          "type": "string"
        },
        {
          "internalType": "string",
          "name": "_topPlayer3",
          "type": "string"
        }
      ],
      "name": "finalizeTournament",
      "outputs": [],
      "stateMutability": "nonpayable",
      "type": "function"
    },
    {
      "inputs": [
        {
          "internalType": "uint256",
          "name": "_tournamentId",
          "type": "uint256"
        }
      ],
      "name": "getTournament",
      "outputs": [
        {
          "internalType": "string",
          "name": "",
          "type": "string"
        },
        {
          "internalType": "string",
          "name": "",
          "type": "string"
        },
        {
          "internalType": "string",
          "name": "",
          "type": "string"
        },
        {
          "internalType": "bool",
          "name": "",
          "type": "bool"
        },
        {
          "internalType": "uint256",
          "name": "",
          "type": "uint256"
        },
        {
          "internalType": "uint256",
          "name": "",
          "type": "uint256"
        }
      ],
      "stateMutability": "view",
      "type": "function",
      "constant": true
    },
    {
      "inputs": [
        {
          "internalType": "uint256",
          "name": "_tournamentId",
          "type": "uint256"
        }
      ],
      "name": "getMatchCount",
      "outputs": [
        {
          "internalType": "uint256",
          "name": "",
          "type": "uint256"
        }
      ],
      "stateMutability": "view",
      "type": "function",
      "constant": true
    },
    {
      "inputs": [
        {
          "internalType": "uint256",
          "name": "_tournamentId",
          "type": "uint256"
        },
        {
          "internalType": "uint256",
          "name": "_matchIndex",
          "type": "uint256"
        }
      ],
      "name": "getMatch",
      "outputs": [
        {
          "internalType": "string",
          "name": "",
          "type": "string"
        },
        {
          "internalType": "string",
          "name": "",
          "type": "string"
        },
        {
          "internalType": "uint256",
          "name": "",
          "type": "uint256"
        },
        {
          "internalType": "uint256",
          "name": "",
          "type": "uint256"
        },
        {
          "internalType": "uint256",
          "name": "",
          "type": "uint256"
        },
        {
          "internalType": "uint256",
          "name": "",
          "type": "uint256"
        }
      ],
      "stateMutability": "view",
      "type": "function",
      "constant": true
    },
    {
      "inputs": [],
      "name": "getTournamentCount",
      "outputs": [
        {
          "internalType": "uint256",
          "name": "",
          "type": "uint256"
        }
      ],
      "stateMutability": "view",
      "type": "function",
      "constant": true
    }
  ],
  "bytecode": "0x608060405234801561001057600080fd5b506114c1806100206000396000f3fe608060405234801561001057600080fd5b50600436106100885760003560e01c80637503e1b71161005b5780637503e1b71461013157806376b79a1e146101675780638110cf68146101975780639dae6081146101b357610088565b8063078c51f01461008d578063107cfe51146100ab5780631a5bd7fc146100e057806348ed4e1914610115575b600080fd5b6100956101bd565b6040516100a291906111c1565b60405180910390f35b6100c560048036038101906100c09190610ebd565b6101c9565b6040516100d796959493929190611112565b60405180910390f35b6100fa60048036038101906100f59190610d30565b6103c8565b60405161010c96959493929190611018565b60405180910390f35b61012f600480360381019061012a9190610e04565b6105ff565b005b61014b60048036038101906101469190610d30565b6107e7565b60405161015e979695949392919061108e565b60405180910390f35b610181600480360381019061017c9190610d30565b6109de565b60405161018e91906111c1565b60405180910390f35b6101b160048036038101906101ac9190610d59565b610a38565b005b6101bb610b38565b005b60008080549050905090565b606080600080600080600080898154811061020d577f4e487b7100000000000000000000000000000000000000000000000000000000600052603260045260246000fd5b9060005260206000209060080201905080600601548810610263576040517f08c379a000000000000000000000000000000000000000000000000000000000815260040161025a90611181565b60405180910390fd5b60008160070160008a81526020019081526020016000209050806000018160010182600201548360030154846004015485600501548580546102a49061135b565b80601f01602080910402602001604051908101604052809291908181526020018280546102d09061135b565b801561031d5780601f106102f25761010080835404028352916020019161031d565b820191906000526020600020905b81548152906001019060200180831161030057829003601f168201915b505050505095508480546103309061135b565b80601f016020809104026020016040519081016040528092919081815260200182805461035c9061135b565b80156103a95780601f1061037e576101008083540402835291602001916103a9565b820191906000526020600020905b81548152906001019060200180831161038c57829003601f168201915b5050505050945097509750975097509750975050509295509295509295565b60608060606000806000806000888154811061040d577f4e487b7100000000000000000000000000000000000000000000000000000000600052603260045260246000fd5b906000526020600020906008020190508060000181600101826002018360030160009054906101000a900460ff16846004015485600501548580546104519061135b565b80601f016020809104026020016040519081016040528092919081815260200182805461047d9061135b565b80156104ca5780601f1061049f576101008083540402835291602001916104ca565b820191906000526020600020905b8154815290600101906020018083116104ad57829003601f168201915b505050505095508480546104dd9061135b565b80601f01602080910402602001604051908101604052809291908181526020018280546105099061135b565b80156105565780601f1061052b57610100808354040283529160200191610556565b820191906000526020600020905b81548152906001019060200180831161053957829003601f168201915b505050505094508380546105699061135b565b80601f01602080910402602001604051908101604052809291908181526020018280546105959061135b565b80156105e25780601f106105b7576101008083540402835291602001916105e2565b820191906000526020600020905b8154815290600101906020018083116105c557829003601f168201915b505050505093509650965096509650965096505091939550919395565b60008681548110610639577f4e487b7100000000000000000000000000000000000000000000000000000000600052603260045260246000fd5b906000526020600020906008020160030160009054906101000a900460ff1615610698576040517f08c379a000000000000000000000000000000000000000000000000000000000815260040161068f906111a1565b60405180910390fd5b60008087815481106106d3577f4e487b7100000000000000000000000000000000000000000000000000000000600052603260045260246000fd5b9060005260206000209060080201905060008160060160008154809291906106fa9061138d565b9190505590506000826007016000838152602001908152602001600020905087816000019080519060200190610731929190610c10565b508681600101908051906020019061074a929190610c10565b508581600201819055508481600301819055508381600401819055504281600501819055508660405161077d9190611001565b6040518091039020886040516107939190611001565b60405180910390207f30e23c1c0ae8d1b1d4e77c66502f01c372fc0a2bd5f2fb5f3366c1fec6db35c988888886600501546040516107d49493929190611236565b60405180910390a3505050505050505050565b600081815481106107f757600080fd5b906000526020600020906008020160009150905080600001805461081a9061135b565b80601f01602080910402602001604051908101604052809291908181526020018280546108469061135b565b80156108935780601f1061086857610100808354040283529160200191610893565b820191906000526020600020905b81548152906001019060200180831161087657829003601f168201915b5050505050908060010180546108a89061135b565b80601f01602080910402602001604051908101604052809291908181526020018280546108d49061135b565b80156109215780601f106108f657610100808354040283529160200191610921565b820191906000526020600020905b81548152906001019060200180831161090457829003601f168201915b5050505050908060020180546109369061135b565b80601f01602080910402602001604051908101604052809291908181526020018280546109629061135b565b80156109af5780601f10610984576101008083540402835291602001916109af565b820191906000526020600020905b81548152906001019060200180831161099257829003601f168201915b5050505050908060030160009054906101000a900460ff16908060040154908060050154908060060154905087565b60008060008381548110610a1b577f4e487b7100000000000000000000000000000000000000000000000000000000600052603260045260246000fd5b906000526020600020906008020190508060060154915050919050565b6000808581548110610a73577f4e487b7100000000000000000000000000000000000000000000000000000000600052603260045260246000fd5b9060005260206000209060080201905083816000019080519060200190610a9b929190610c10565b5082816001019080519060200190610ab4929190610c10565b5081816002019080519060200190610acd929190610c10565b5060018160030160006101000a81548160ff0219169083151502179055504281600501819055507f568c54d4ac7e858de03815d9b8a8d2c02085330df3c9da7cf4aa5392600ff5fa85858585604051610b2994939291906111dc565b60405180910390a15050505050565b600080600181600181540180825580915050039060005260206000209060080201905060405180602001604052806000815250816000019080519060200190610b82929190610c10565b5060405180602001604052806000815250816001019080519060200190610baa929190610c10565b5060405180602001604052806000815250816002019080519060200190610bd2929190610c10565b5060008160030160006101000a81548160ff021916908315150217905550428160040181905550600081600501819055506000816006018190555050565b828054610c1c9061135b565b90600052602060002090601f016020900481019282610c3e5760008555610c85565b82601f10610c5757805160ff1916838001178555610c85565b82800160010185558215610c85579182015b82811115610c84578251825591602001919060010190610c69565b5b509050610c929190610c96565b5090565b5b80821115610caf576000816000905550600101610c97565b5090565b6000610cc6610cc1846112ac565b61127b565b905082815260208101848484011115610cde57600080fd5b610ce9848285611319565b509392505050565b600082601f830112610d0257600080fd5b8135610d12848260208601610cb3565b91505092915050565b600081359050610d2a81611474565b92915050565b600060208284031215610d4257600080fd5b6000610d5084828501610d1b565b91505092915050565b60008060008060808587031215610d6f57600080fd5b6000610d7d87828801610d1b565b945050602085013567ffffffffffffffff811115610d9a57600080fd5b610da687828801610cf1565b935050604085013567ffffffffffffffff811115610dc357600080fd5b610dcf87828801610cf1565b925050606085013567ffffffffffffffff811115610dec57600080fd5b610df887828801610cf1565b91505092959194509250565b60008060008060008060c08789031215610e1d57600080fd5b6000610e2b89828a01610d1b565b965050602087013567ffffffffffffffff811115610e4857600080fd5b610e5489828a01610cf1565b955050604087013567ffffffffffffffff811115610e7157600080fd5b610e7d89828a01610cf1565b9450506060610e8e89828a01610d1b565b9350506080610e9f89828a01610d1b565b92505060a0610eb089828a01610d1b565b9150509295509295509295565b60008060408385031215610ed057600080fd5b6000610ede85828601610d1b565b9250506020610eef85828601610d1b565b9150509250929050565b610f0281611303565b82525050565b6000610f13826112dc565b610f1d81856112e7565b9350610f2d818560208601611328565b610f3681611463565b840191505092915050565b6000610f4c826112dc565b610f5681856112f8565b9350610f66818560208601611328565b80840191505092915050565b6000610f7f6015836112e7565b91507f496e646963652066756572612064652072616e676f00000000000000000000006000830152602082019050919050565b6000610fbf6020836112e7565b91507f456c20746f726e656f207961206861207369646f2066696e616c697a61646f2e6000830152602082019050919050565b610ffb8161130f565b82525050565b600061100d8284610f41565b915081905092915050565b600060c08201905081810360008301526110328189610f08565b905081810360208301526110468188610f08565b9050818103604083015261105a8187610f08565b90506110696060830186610ef9565b6110766080830185610ff2565b61108360a0830184610ff2565b979650505050505050565b600060e08201905081810360008301526110a8818a610f08565b905081810360208301526110bc8189610f08565b905081810360408301526110d08188610f08565b90506110df6060830187610ef9565b6110ec6080830186610ff2565b6110f960a0830185610ff2565b61110660c0830184610ff2565b98975050505050505050565b600060c082019050818103600083015261112c8189610f08565b905081810360208301526111408188610f08565b905061114f6040830187610ff2565b61115c6060830186610ff2565b6111696080830185610ff2565b61117660a0830184610ff2565b979650505050505050565b6000602082019050818103600083015261119a81610f72565b9050919050565b600060208201905081810360008301526111ba81610fb2565b9050919050565b60006020820190506111d66000830184610ff2565b92915050565b60006080820190506111f16000830187610ff2565b81810360208301526112038186610f08565b905081810360408301526112178185610f08565b9050818103606083015261122b8184610f08565b905095945050505050565b600060808201905061124b6000830187610ff2565b6112586020830186610ff2565b6112656040830185610ff2565b6112726060830184610ff2565b95945050505050565b6000604051905081810181811067ffffffffffffffff821117156112a2576112a1611434565b5b8060405250919050565b600067ffffffffffffffff8211156112c7576112c6611434565b5b601f19601f8301169050602081019050919050565b600081519050919050565b600082825260208201905092915050565b600081905092915050565b60008115159050919050565b6000819050919050565b82818337600083830152505050565b60005b8381101561134657808201518184015260208101905061132b565b83811115611355576000848401525b50505050565b6000600282049050600182168061137357607f821691505b6020821081141561138757611386611405565b5b50919050565b60006113988261130f565b91507fffffffffffffffffffffffffffffffffffffffffffffffffffffffffffffffff8214156113cb576113ca6113d6565b5b600182019050919050565b7f4e487b7100000000000000000000000000000000000000000000000000000000600052601160045260246000fd5b7f4e487b7100000000000000000000000000000000000000000000000000000000600052602260045260246000fd5b7f4e487b7100000000000000000000000000000000000000000000000000000000600052604160045260246000fd5b6000601f19601f8301169050919050565b61147d8161130f565b811461148857600080fd5b5056fea26469706673582212208ee53317d0800f359452498d0d8645bcd0fd403ea17eeb74dfbf578ae3369c5964736f6c63430008000033",
  "immutableReferences": {},
  "source": "// SPDX-License-Identifier: MIT\r\npragma solidity ^0.8.0;\r\n\r\ncontract TournamentScores {\r\n    struct Match {\r\n        string player1; \r\n        string player2; \r\n        uint score1;\r\n        uint score2;\r\n        uint startDate; \r\n        uint endDate;  \r\n    }\r\n\r\n    struct Tournament {\r\n        string topPlayer1; \r\n        string topPlayer2; \r\n        string topPlayer3; \r\n        bool finalized; \r\n        uint startDate; \r\n        uint endDate;   \r\n        uint matchCount;\r\n        mapping(uint => Match) matches;\r\n    }\r\n\r\n    Tournament[] public tournaments;\r\n\r\n    event MatchAdded(string indexed player1, string indexed player2, uint score1, uint score2, uint startDate, uint endDate);\r\n    event TournamentFinalized(uint tournamentId, string topPlayer1, string topPlayer2, string topPlayer3);\r\n\r\n    function createTournament() public {\r\n        Tournament storage newTournament = tournaments.push();\r\n        newTournament.topPlayer1 = \"\";\r\n        newTournament.topPlayer2 = \"\";\r\n        newTournament.topPlayer3 = \"\";\r\n        newTournament.finalized = false;\r\n        newTournament.startDate = block.timestamp;\r\n        newTournament.endDate = 0;\r\n        newTournament.matchCount = 0;\r\n    }\r\n\r\n    function addMatch(uint _tournamentId, string memory _player1, string memory _player2, uint _score1, uint _score2, uint _startDate) public {\r\n        require(!tournaments[_tournamentId].finalized, \"El torneo ya ha sido finalizado.\");\r\n        \r\n        Tournament storage tournament = tournaments[_tournamentId];\r\n        uint matchId = tournament.matchCount++;\r\n        \r\n        Match storage newMatch = tournament.matches[matchId];\r\n        newMatch.player1 = _player1;\r\n        newMatch.player2 = _player2;\r\n        newMatch.score1 = _score1;\r\n        newMatch.score2 = _score2;\r\n        newMatch.startDate = _startDate;\r\n        newMatch.endDate = block.timestamp;\r\n\r\n        emit MatchAdded(_player1, _player2, _score1, _score2, _startDate, newMatch.endDate);\r\n    }\r\n\r\n    function finalizeTournament(uint _tournamentId, string memory _topPlayer1, string memory _topPlayer2, string memory _topPlayer3) public {\r\n        Tournament storage tournament = tournaments[_tournamentId];\r\n        tournament.topPlayer1 = _topPlayer1;\r\n        tournament.topPlayer2 = _topPlayer2;\r\n        tournament.topPlayer3 = _topPlayer3;\r\n        tournament.finalized = true;\r\n        tournament.endDate = block.timestamp; \r\n        \r\n        emit TournamentFinalized(_tournamentId, _topPlayer1, _topPlayer2, _topPlayer3);\r\n    }\r\n\r\n    function getTournament(uint _tournamentId) public view returns (string memory, string memory, string memory, bool, uint, uint) {\r\n        Tournament storage tournament = tournaments[_tournamentId];\r\n        return (tournament.topPlayer1, tournament.topPlayer2, tournament.topPlayer3, tournament.finalized, tournament.startDate, tournament.endDate);\r\n    }\r\n\r\n    function getMatchCount(uint _tournamentId) public view returns (uint) {\r\n        Tournament storage tournament = tournaments[_tournamentId];\r\n        return tournament.matchCount;\r\n    }\r\n\r\n    function getMatch(uint _tournamentId, uint _matchIndex) public view returns (string memory, string memory, uint, uint, uint, uint) {\r\n        Tournament storage tournament = tournaments[_tournamentId];\r\n        require(_matchIndex < tournament.matchCount, \"Indice fuera de rango\");\r\n        Match storage matchDetails = tournament.matches[_matchIndex];\r\n        return (matchDetails.player1, matchDetails.player2, matchDetails.score1, matchDetails.score2, matchDetails.startDate, matchDetails.endDate);\r\n    }\r\n\r\n\t\r\n    function getTournamentCount() public view returns (uint) {\r\n        return tournaments.length;\r\n    }\r\n}",
  "sourcePath": "/mnt/d/Programas/Drivers/Mis Programas/C/Active/blockchain/contracts/TournamentScores.sol",
  "compiler": {
    "name": "solc",
    "version": "0.8.0+commit.c7dfd78e.Emscripten.clang"
  },
  "schemaVersion": "3.4.16",
  "updatedAt": "2024-10-25T19:15:46.035Z",
  "networkType": "ethereum",
  "devdoc": {
    "kind": "dev",
    "methods": {},
    "version": 1
  },
  "userdoc": {
    "kind": "user",
    "methods": {},
    "version": 1
  }
}